{
  "contractName": "Balance",
  "abi": [
    {
      "inputs": [],
      "stateMutability": "nonpayable",
      "type": "constructor"
    },
    {
      "inputs": [],
      "name": "Balances",
      "outputs": [
        {
          "internalType": "uint256",
          "name": "",
          "type": "uint256"
        }
      ],
      "stateMutability": "view",
      "type": "function"
    },
    {
      "inputs": [],
      "name": "contribute",
      "outputs": [],
      "stateMutability": "payable",
      "type": "function"
    }
  ],
  "bytecode": "0x608060405234801561001057600080fd5b5060008081905550610150806100276000396000f3fe6080604052600436106100295760003560e01c806372f4ecab1461002e578063d7bb99ba14610059575b600080fd5b34801561003a57600080fd5b50610043610063565b604051610050919061009c565b60405180910390f35b610061610069565b005b60005481565b3460008082825461007a91906100e6565b92505081905550565b6000819050919050565b61009681610083565b82525050565b60006020820190506100b1600083018461008d565b92915050565b7f4e487b7100000000000000000000000000000000000000000000000000000000600052601160045260246000fd5b60006100f182610083565b91506100fc83610083565b9250828201905080821115610114576101136100b7565b5b9291505056fea26469706673582212209af10bc77dfb5750695ae871e39b13c91dc32178f0093f19b0bb63a8464cf48164736f6c63430008110033",
  "immutableReferences": {},
  "source": "pragma solidity ^0.8.7;\n\ncontract Balance {\n   uint public Balances;\n\n   constructor() public \n   {\n       Balances = 0;\n   }\n\n   function contribute() public payable \n   {\n       // msg.value is the value of Ether sent in a transaction \n       Balances += msg.value;\n   }\n\n}\n",
  "sourcePath": "C:\\Users\\35389\\Documents\\GitHub\\CA---DDT\\contracts\\Balance.sol",
  "compiler": {
    "name": "solc",
    "version": "0.8.17+commit.8df45f5f.Emscripten.clang"
  },
  "schemaVersion": "3.4.11",
  "updatedAt": "2022-11-30T14:10:40.534Z",
  "devdoc": {
    "kind": "dev",
    "methods": {},
    "version": 1
  },
  "userdoc": {
    "kind": "user",
    "methods": {},
    "version": 1
  }
}